:020000000121DC
:0E000300B80903020010088880D290118732DD
:10001300B8FF03020020188880D2901187327580C0
:10002300FF7590FF75A0FF78FFE8D288D28A7589A3
:100033000175A88530A00CB8FF057590FF80F511F8
:100043004E80F17590FF20A0EB80F8E8C290115923
:10005300E8D29011702290050093F58CE89005503A
:1000630093F58AD28C308DFDC28CC28D229006000E
:1000730093F58CE890065093F58AD28C308DFDC2AF
:100083008CC28D2279FA7AFA7B08DBFEDAFAD9F68A
:01009300224A
:0A050000FFFFFFFFFFFFFFFFFFFFFB
:0A055000E7CEB59C836A51381F0600
:0A060000FEFEFEFEFEFEFEFEFEFF03
:0A065000253E577089A2BBD4ED06C9
:00000001FF
